:020000040800F2
:1000000000800120950F0008ED030008EF030008B1
:10001000F1030008F3030008F503000800000000E6
:10002000000000000000000000000000F7030008CE
:10003000F903000800000000FB030008FD030008AE
:10004000E50F0008E50F0008E50F0008E50F0008C0
:10005000E50F0008E50F0008E50F0008E50F0008B0
:10006000E50F0008E50F0008E50F0008E50F0008A0
:10007000E50F0008E50F0008E50F0008E50F000890
:10008000E50F0008E50F0008E50F0008000000007C
:10009000000000000000000000000000E50F000864
:1000A000E50F0008E50F0008E50F0008E50F000860
:1000B000E50F0008E50F0008E50F0008E50F000850
:1000C000E50F0008E50F0008E50F0008E50F000840
:1000D000E50F0008E50F0008E50F0008000000002C
:1000E000E50F0008E50F0008E50F0008000000001C
:1000F000000000000000000000000000E50F000804
:1001000000000000E50F0008E50F0008E50F0008FB
:1001100000000000000000000000000000000000DF
:10012000E50F0008E50F0008E50F0008E50F0008DF
:10013000E50F0008000000000000000000000000C3
:10014000000000000000000000000000E50F0008B3
:10015000E50F0008E50F0008E50F0008E50F0008AF
:10016000E50F0008E50F0008000000000000000097
:10017000000000000000000000000000000000007F
:1001800000000000E50F0008000000000000000073
:04019000E50F00086F
:1001940010B5054C237833B9044B13B10448AFF3BD
:1001A40000800123237010BD0C000020000000001B
:1001B400B814000808B5034B1BB103490348AFF357
:1001C400008008BD0000000010000020B8140008E2
:1001D40072B6FEE700B595B03022002108A800F001
:1001E40025FF002303930493059306930793019338
:1001F4001F4A116C41F080511164126C02F080525C
:100204000192019A02931B490A6822F4404242F483
:1002140000420A600A6802F440420292029A0221F1
:10022400089101220B9210220C920E910F931092BE
:100234004FF4A8731193042312930723139308A86C
:1002440000F0B6F980B90F2303930221049100232F
:1002540005934FF480520692079303A800F00EFC16
:1002640020B915B05DF804FBFFF7B2FFFFF7B0FF4C
:10027400003802400070004008B500F03FFEFFF770
:10028400A9FF00F00DF800F05FF8044800F0D6FE76
:100294004FF47A7000F05EFEF7E700BF0000024002
:1002A40030B58BB0002405940694079408940994FF
:1002B4000194224B1A6B42F004021A631A6B02F087
:1002C40004020192019A02941A6B42F080021A63AA
:1002D4001A6B02F080020292029A03941A6B42F0A3
:1002E40001021A631A6B02F001020392039A049446
:1002F4001A6B42F002021A631B6B03F002030493AD
:10030400049B0F4D22462021284600F06DFD4FF43A
:10031400005305934FF404130693079405A9094861
:1003240000F082FC2023059301230693079408948C
:1003340005A9284600F078FC0BB030BD0038024017
:10034400000002400008024008B50A480A4B036056
:100354004FF4E133436000238360C36003610C22E4
:1003640042618361C36100F0F3F800B908BDFFF78F
:100374002FFFFBE7280000200044004000B589B0AF
:100384000023039304930593069307930268144B85
:100394009A4202D009B05DF804FB0021019103F5F3
:1003A400FA331A6C42F400321A641A6C02F4003202
:1003B4000192019A02911A6B42F001021A631B6BBB
:1003C40003F001030293029B0C230393022304937F
:1003D4000723079303A9034800F026FCDAE700BFCC
:1003E4000044004000000240FEE7FEE7FEE7FEE7AF
:1003F400FEE770477047704708B500F099FD08BDE7
:1004040000B583B0002100910C4B5A6C42F4804239
:100414005A645A6C02F480420092009A01911A6C58
:1004240042F080521A641B6C03F080530193019BC9
:10043400072000F0DFFC03B05DF804FB0038024045
:1004440038B504460268136923F44053C1680B436A
:10045400136183680269134342691343C2691A43EF
:100464000168CB6823F4164323F00C031343CB60D9
:100474000268536923F4407381690B435361036831
:10048400314A934206D002F58062934202D000F0D2
:10049400ABFB01E000F0B8FBE369B3F5004F29D0F2
:1004A4000021031849411B1841F10001C90041EA28
:1004B4005371DB00181863684FEA83024FEA9373A1
:1004C40041F1000100F0F6FD204DA5FB0032510979
:1004D400642303FB11031B013233A5FB03235B09D4
:1004E40003F0F00202EB011203F00F03216813443E
:1004F4008B6038BD0023021843EB0301121841F14D
:100504000001C90041EA5271D200101841F1000102
:10051400626892185B4100F0CDFD0C4DA5FB0032E2
:100524005109642303FB1103DB003233A5FB0323CE
:100534005B095A0002F4F87202EB011203F007039C
:10054400216813448B60D4E7001001401F85EB51F0
:1005540058B310B5044690F83D300BB3242384F807
:100564003D302268D36823F40053D3602046FFF75C
:1005740067FF2268136923F4904313612268536967
:1005840023F02A0353612268D36843F40053D360F1
:1005940000202064202384F83D3084F83E3010BDD0
:1005A40080F83C30FFF7EAFED8E7012070470000EE
:1005B400002800F0E08170B582B00446036813F0AF
:1005C400010F3BD09F4B9B6803F00C03042B2CD0F2
:1005D4009C4B9B6803F00C03082B21D06368B3F594
:1005E400803F4FD0B3F5A02F52D0964B1A6822F417
:1005F40080321A601A6822F480221A606368002B21
:1006040050D000F0A1FC05468E4B1B6813F4003F4C
:1006140014D100F099FC401B6428F5D90320B1E102
:10062400884B5B6813F4800FD8D0864B1B6813F497
:10063400003F03D06368002B00F09F81236813F010
:10064400020F54D07F4B9B6813F00C0F3ED07D4BB0
:100654009B6803F00C03082B33D0E368002B68D0AD
:10066400794B01221A6000F06FFC0546754B1B683C
:1006740013F0020F54D100F067FC401B0228F5D997
:1006840003207FE16F4A136843F480331360B5E7B6
:100694006C4B1A6842F480221A601A6842F4803261
:1006A4001A60ABE700F050FC0546664B1B6813F478
:1006B400003FC3D000F048FC401B6428F5D9032058
:1006C40060E1604B5B6813F4800FC6D15D4B1B681F
:1006D40013F0020F03D0E368012B40F05081594A14
:1006E400136823F0F803216943EAC1031360236804
:1006F40013F0080F42D063696BB3534B0122C3F864
:10070400802E00F021FC05464E4B5B6F13F0020F68
:1007140034D100F019FC401B0228F5D9032031E143
:10072400484A136823F0F803216943EAC1031360BC
:10073400DDE7454B00221A6000F006FC0546414BFC
:100744001B6813F0020FD2D000F0FEFB401B0228FE
:10075400F5D9032016E13C4B0022C3F8802E00F0AB
:10076400F3FB0546374B5B6F13F0020F06D000F026
:10077400EBFB401B0228F5D9032003E1236813F0A7
:10078400040F77D02F4B1B6C13F0805F33D1002301
:1007940001932C4B1A6C42F080521A641B6C03F0C8
:1007A40080530193019B0125284B1B6813F4807F20
:1007B40023D0A368012B34D0052B38D0214B1A6FDA
:1007C40022F001021A671A6F22F004021A67A36862
:1007D400002B3DD000F0B8FB06461A4B1B6F13F0FC
:1007E400020F46D100F0B0FB801B41F288339842DF
:1007F400F3D90320C6E00025D6E7144A136843F46E
:100804008073136000F0A0FB0646104B1B6813F4C2
:10081400807FCED100F098FB801B0228F5D90320FD
:10082400B0E0084A136F43F001031367CFE7054BA9
:100834001A6F42F004021A671A6F42F001021A6733
:10084400C5E700BF00380240000047420070004086
:1008540000F07AFB0646524B1B6F13F0020F08D0D0
:1008640000F072FB801B41F288339842F3D90320D5
:1008740088E0EDB9A369002B00F08380484A9268B0
:1008840002F00C02082A51D0022B17D0454B00224B
:100894001A6600F059FB0446414B1B6813F0007FB5
:1008A40042D000F051FB001B0228F5D9032069E077
:1008B4003B4A136C23F080531364DBE7394B00226B
:1008C4001A6600F041FB0546354B1B6813F0007FA8
:1008D40006D000F039FB401B0228F5D9032051E073
:1008E400E369226A1343626A43EA8213A26A5208E2
:1008F400013A43EA0243E26A43EA0263284A536044
:10090400284B01221A6600F01FFB0446244B1B6887
:1009140013F0007F06D100F017FB001B0228F5D965
:1009240003202FE000202DE000202BE0012B2BD012
:100934001B4B5B6803F48001E269914226D103F00A
:100944003F02216A8A4223D1616A47F6C0721A4083
:10095400B2EB811F1ED103F44031A26A5208013A5E
:10096400B1EB024F18D103F07063E26AB3EB026F8C
:1009740014D1002006E001207047012002E001208C
:1009840000E0002002B070BD0120FBE70120F9E780
:100994000120F7E70120F5E70120F3E70120F1E763
:1009A400003802400000474208B5314B9B6803F011
:1009B4000C03042B57D0082B57D12D4B5A6802F047
:1009C4003F025B6813F4800F2AD0294B5968C1F3A6
:1009D400881C4FEA4C11B1EB0C006EEB0E0E4FEA83
:1009E4008E1343EA90638101091A63EB0E03DB0063
:1009F40043EA5173C90011EB0C0C43F10003590293
:100A040000234FEA4C2041EADC5100F053FB184B21
:100A14005B68C3F3014301335B00B0FBF3F025E0F3
:100A2400134B5968C1F3881C4FEA4C11B1EB0C000D
:100A34006EEB0E0E4FEA8E1343EA90638101091A9E
:100A440063EB0E03DB0043EA5173C90011EB0C0C9A
:100A540043F10003990200234FEA8C2041EA9C51A0
:100A640000F028FBD3E7034800E0034808BD00BFBB
:100A74000038024000127A000024F400002800F03C
:100A84009B8070B50D4604464F4B1B6803F007036B
:100A94008B4208D2CBB24C4A1370136803F007039D
:100AA4008B4240F08B80236813F0020F17D013F0B1
:100AB400040F04D0454A936843F4E05393602368D9
:100AC40013F0080F04D0414A936843F460439360E1
:100AD4003E4A936823F0F003A1680B4393602368B4
:100AE40013F0010F32D06368012B21D09A1E012A22
:100AF40025D9364A126812F0020F61D033498A6848
:100B040022F0030213438B6000F01EFA06462F4BBB
:100B14009B6803F00C036268B3EB820F16D000F0FD
:100B240013FA801B41F288339842F0D9032042E043
:100B3400264A126812F4003FE0D101203BE0234A28
:100B4400126812F0007FD9D1012034E01E4B1B68DB
:100B540003F00703AB4207D9EAB21B4B1A701B68B8
:100B640003F00703AB422DD1236813F0040F06D022
:100B7400164A936823F4E053E1680B4393602368B7
:100B840013F0080F07D0114A936823F460432169D6
:100B940043EAC1039360FFF707FF0C4B9B68C3F361
:100BA40003130B4AD35CD8400A4B18600A4B1868ED
:100BB40000F07EF9002070BD012070470120FAE7A3
:100BC4000120F8E70120F6E7003C0240003802402B
:100BD400D01400080800002004000020014B18680D
:100BE400704700BF0800002008B5FFF7F7FF044B6B
:100BF4009B68C3F38223034AD35CD84008BD00BF7B
:100C040000380240E014000808B5FFF7E7FF044B82
:100C14009B68C3F34233034AD35CD84008BD00BF8A
:100C240000380240E014000800230F2B00F2D280A9
:100C340070B582B060E085685E000324B44025EAA4
:100C44000405CC68B4402C438460456825EA020559
:100C54004C68C4F300129A402A4342605AE0DC080C
:100C6400083450F8246003F0070295000F22AA40CC
:100C740026EA020E0A69AA4042EA0E0240F824203B
:100C84005CE0042200E0002202FA0EF22A4302345D
:100C9400514D45F82420514A94686FEA0C0224EA25
:100CA4000C054E6816F4801F01D04CEA04054B4C29
:100CB400A560E46802EA04054E6816F4001F01D03A
:100CC4004CEA0405454CE560646802EA04054E6894
:100CD40016F4003F01D04CEA0405404C65602468DA
:100CE40022404D6815F4803F01D04CEA04023B4C8D
:100CF400226001330F2B6BD801229A400C6804EA5E
:100D0400020C32EA0404F4D14C6804F00304013CFC
:100D1400012C90D94A6802F00302032A09D0C4685E
:100D24005D000322AA4024EA02048A68AA402243FE
:100D3400C2604A6802F00302022A90D004684FEAB3
:100D4400430E032202FA0EF224EA02044A6802F075
:100D5400030202FA0EF2224302604A6812F4403F90
:100D6400C7D0002201921E4A546C44F48044546457
:100D7400526C02F480420192019A9C08A51C164A06
:100D840052F8255003F003024FEA820E0F2202FAB2
:100D94000EF225EA0205134A90423FF474AF02F5BD
:100DA400806290420ED002F5806290420CD002F52F
:100DB400806290420AD002F5806290423FF461AFB3
:100DC400072261E701225FE702225DE703225BE776
:100DD40002B070BD704700BF00380140003C0140C4
:100DE40000380240000002400AB1816170470904E2
:100DF40081617047074AD36823F4E0631B041B0C2A
:100E0400000200F4E060034343F0BF6343F40033A3
:100E1400D360704700ED00E000B5194BDB68C3F305
:100E24000223C3F1070CBCF1040F28BF4FF0040CDC
:100E340003F1040EBEF1060F18D9033B4FF0FF3E39
:100E44000EFA0CFC21EA0C0199400EFA03F322EA93
:100E54000303194300280BDB0901C9B200F1604008
:100E640000F5614080F800135DF804FB0023E5E71A
:100E740000F00F000901C9B2024B1954F4E700BF96
:100E840000ED00E014ED00E00138B0F1807F0BD2FA
:100E94004FF0E0235861054AF02182F82310002026
:100EA400986107221A6170470120704700ED00E045
:100EB40010B504460E4B18784FF47A73B3FBF0F375
:100EC4000C4A1068B0FBF3F0FFF7DEFF68B90F2C93
:100ED40001D901200AE0002221464FF0FF30FFF73C
:100EE4009BFF054B1C60002000E0012010BD00BFEB
:100EF40000000020080000200400002008B50B4B6F
:100F04001A6842F400721A601A6842F480621A6025
:100F14001A6842F480721A600320FFF76BFF002006
:100F2400FFF7C6FFFFF76CFA002008BD003C024043
:100F3400034A1168034B1B780B441360704700BFCE
:100F44006C00002000000020014B1868704700BFAF
:100F54006C00002038B50446FFF7F6FF0546B4F1EF
:100F6400FF3F02D0044B1B781C44FFF7EDFF401BEE
:100F7400A042FAD338BD00BF00000020034AD2F8D3
:100F8400883043F47003C2F88830704700ED00E005
:100F9400DFF834D00D480E490E4A002302E0D4583D
:100FA400C4500433C4188C42F9D30B4A0B4C0023AD
:100FB40001E013600432A242FBD3FFF7DFFF00F02D
:100FC40011F8FFF759F97047008001200000002054
:100FD4000C000020F81400080C0000207000002011
:100FE400FEE7000070B50D4D0D4C641BA4100026E7
:100FF400A64209D10B4D0C4C00F05CFA641BA41002
:101004000026A64205D170BD55F8043B9847013629
:10101400EEE755F8043B98470136F2E7F014000870
:10102400F0140008F0140008F41400080244034605
:10103400934200D1704703F8011BF9E780B56F466E
:1010440094B002901430019009900B900F9000F02E
:1010540020F80A9006900699119110911099059123
:1010640008900898139012901298079005A803907E
:1010740007A804900398049900F033F801460198F6
:1010840009680C900D910E9000F00DF8FFE714B074
:1010940080BD83B001900068029002980090FFE741
:1010A400009803B0704782B0009001910160FFE79F
:1010B40002B0704710B584B002AC009400F005F89B
:1010C400029A039B04B010BDFEDE80B56F4600F0AB
:1010D4004DF8D7F808C0BCF1000F18BFCCE90023C5
:1010E40080BD80B56F4694B00290069007910D9133
:1010F4000F910E910E980390FFE702980A900C90BE
:101104000078C0F3401007F8210C07F8220C17F8F8
:10111400220C07F83D0CFFE7A7F13D00089017F8F3
:101124003D0C0190FFE70399019A1091012090432F
:1011340007F8090C1291096821F02001009100F0D0
:1011440010F803990246009802F00102139140EA54
:1011540042100860FFE703980990FFE7039814B072
:1011640080BD81B08DF8030001B07047F0B503AFC6
:101174002DE900078E46844612B1002B00F08380CF
:101184000020BEF1000F00F0FA80BCEB02017EEB00
:101194000301C0F0F480BEFA8EF0B3FA83F1081AAA
:1011A40000F03F0400F01F00C4F1200503FA04F12D
:1011B40002FA04F922FA05F545EA010AB4F1200518
:1011C40058BF02FA05FA4FF0010558BF4FF0000965
:1011D40005FA00F8002009E0B446AE464FEA1911BA
:1011E40041EA0A794FEA18184FEA1A1ABCEB0905C2
:1011F4006EEB0A06B6F1FF3F08DDA91A40EA0800C3
:1012040076EB0301AC46B64602D2B8E065467646B4
:101214005FEA5A044FEA3901B5EB010C76EB040E90
:1012240007D4BCEB020140EA58007EEB030102D272
:10123400A5E0AC46B6464FEA990141EA8A71BCEB97
:1012440001066EEB9A05002D08D4B11A40EA980005
:1012540075EB0301B446AE4602D290E0664675468D
:101264004FEAD90141EA4A71B6EB010C65EBDA0E9B
:10127400BEF1000FB0D4BCEB020140EAD8007EEB13
:101284000301ABD27BE0BEF1000F72D096457CD255
:10129400B2FA82F0BEFA8EF1081AC0F1200108BF3A
:1012A4001F2101F03F0401F01F0103FA04F0C4F10F
:1012B400200302FA04F922FA03F31843B4F12003D9
:1012C4004FF0010404FA01F84FF0000158BF02FA8C
:1012D40003F058BF4FF0000908E0AC46B6464FEAA9
:1012E400191343EA00794FEA18180009BCEB090501
:1012F4006EEB0006B6F1FF3F04DD41EA0801AC469F
:1013040016B930E0654676465FEA50044FEA390381
:10131400B5EB030C66EB0404002C03D441EA58013A
:1013240002D120E0AC4634464FEA990343EA807385
:10133400BCEB030564EB9006002E04D441EA98014B
:10134400AC4602D10FE0654626464FEAD90343EA8C
:101354004073B5EB030C66EBD00EBEF1000FBCD4AA
:1013640041EAD801BBD1BCFBF2F000FB12CC08432C
:1013740003E0BCFBF2F000FB12CC4FF0000E0021A6
:1013840062467346BDE80007F0BD0BD1BCFBFEF01E
:10139400012100FB1ECC4FF0000E62467346BDE8EF
:1013A4000007F0BDBEFBF2F1B2F5803F01FB12EE87
:1013B40018D24FEA0E404FF0000E40EA1C40B0FB3A
:1013C400F2F303FB120041EA1341CCEA0040B0FB04
:1013D400F2F606FB120C46EA034062467346BDE889
:1013E4000007F0BDBCEB02007EEB030005D2002039
:1013F40062467346BDE80007F0BDD80740EA520ACA
:101404004FEAC2794FF00048002009E0B446A646EE
:101414004FEA191343EA0A794FEA18184FEA1A1ADD
:10142400BCEB09066EEB0A04B4F1FF3F04DD40EAAD
:101434000800B44614B930E0664674465FEA5A05BB
:101444004FEA3903B6EB030C64EB0505002D03D416
:1014540040EA580002D120E0B44625464FEA9903F9
:1014640043EA8A73BCEB030665EB9A04002C04D4AC
:1014740040EA9800B44602D10FE066462C464FEA93
:10148400D90343EA4A73B6EB030C64EBDA0EBEF1FC
:10149400000FBBD440EAD800BAD1BCFBF2F34FF042
:1014A400000E03FB12CC184362467346BDE80007E6
:1014B400F0BD0000F8B500BFF8BC08BC9E467047FC
:0C14C400F8B500BFF8BC08BC9E4670479D
:1014D00000000000000000000102030406070809E4
:0814E0000000000001020304FA
:0814E80058FBFF7F010000002A
:0414F000B901000836
:0414F4009501000856
:0C14F80001000000100000000024F400BF
:0400000508000F954B
:00000001FF
